{
  "contractName": "Logistics",
  "abi": [
    {
      "inputs": [],
      "payable": false,
      "stateMutability": "nonpayable",
      "type": "constructor"
    },
    {
      "anonymous": false,
      "inputs": [
        {
          "indexed": false,
          "internalType": "address",
          "name": "_order_id",
          "type": "address"
        },
        {
          "indexed": false,
          "internalType": "string",
          "name": "_current_location",
          "type": "string"
        },
        {
          "indexed": false,
          "internalType": "string",
          "name": "_delivery_location",
          "type": "string"
        },
        {
          "indexed": false,
          "internalType": "address",
          "name": "_reciever",
          "type": "address"
        }
      ],
      "name": "SendShipment",
      "type": "event"
    },
    {
      "constant": false,
      "inputs": [
        {
          "internalType": "address",
          "name": "_order_id",
          "type": "address"
        },
        {
          "internalType": "string",
          "name": "_current_location",
          "type": "string"
        },
        {
          "internalType": "string",
          "name": "_delivery_location",
          "type": "string"
        },
        {
          "internalType": "address",
          "name": "_reciever",
          "type": "address"
        }
      ],
      "name": "sendShipment",
      "outputs": [
        {
          "internalType": "address",
          "name": "",
          "type": "address"
        }
      ],
      "payable": false,
      "stateMutability": "nonpayable",
      "type": "function"
    },
    {
      "constant": false,
      "inputs": [
        {
          "internalType": "address",
          "name": "shippment_id",
          "type": "address"
        },
        {
          "internalType": "string",
          "name": "_location",
          "type": "string"
        }
      ],
      "name": "updateCurrentLocation",
      "outputs": [
        {
          "internalType": "bool",
          "name": "",
          "type": "bool"
        }
      ],
      "payable": false,
      "stateMutability": "nonpayable",
      "type": "function"
    },
    {
      "constant": false,
      "inputs": [
        {
          "internalType": "address",
          "name": "shippment_id",
          "type": "address"
        },
        {
          "internalType": "string",
          "name": "_status",
          "type": "string"
        }
      ],
      "name": "updateStatus",
      "outputs": [
        {
          "internalType": "bool",
          "name": "",
          "type": "bool"
        }
      ],
      "payable": false,
      "stateMutability": "nonpayable",
      "type": "function"
    },
    {
      "constant": true,
      "inputs": [
        {
          "internalType": "address",
          "name": "shippment_id",
          "type": "address"
        }
      ],
      "name": "getStatus",
      "outputs": [
        {
          "internalType": "string",
          "name": "",
          "type": "string"
        }
      ],
      "payable": false,
      "stateMutability": "view",
      "type": "function"
    },
    {
      "constant": true,
      "inputs": [
        {
          "internalType": "address",
          "name": "shippment_id",
          "type": "address"
        }
      ],
      "name": "getCurrentLocation",
      "outputs": [
        {
          "internalType": "string",
          "name": "",
          "type": "string"
        }
      ],
      "payable": false,
      "stateMutability": "view",
      "type": "function"
    },
    {
      "constant": true,
      "inputs": [
        {
          "internalType": "address",
          "name": "shippment_id",
          "type": "address"
        }
      ],
      "name": "getReciever",
      "outputs": [
        {
          "internalType": "address",
          "name": "",
          "type": "address"
        }
      ],
      "payable": false,
      "stateMutability": "view",
      "type": "function"
    },
    {
      "constant": true,
      "inputs": [
        {
          "internalType": "address",
          "name": "shippment_id",
          "type": "address"
        }
      ],
      "name": "getCustomer",
      "outputs": [
        {
          "internalType": "address",
          "name": "",
          "type": "address"
        }
      ],
      "payable": false,
      "stateMutability": "view",
      "type": "function"
    }
  ],
  "bytecode": "0x608060405234801561001057600080fd5b50600080546001600160a01b031916331790556109bb806100326000396000f3fe608060405234801561001057600080fd5b506004361061007d5760003560e01c8063721343921161005b578063721343921461020b578063731393151461036b5780639bab7f4a14610391578063cb949e51146104455761007d565b806310657cfd14610082578063295aecb81461014a57806330ccebb5146101e5575b600080fd5b6101366004803603604081101561009857600080fd5b6001600160a01b038235169190810190604081016020820135600160201b8111156100c257600080fd5b8201836020820111156100d457600080fd5b803590602001918460018302840111600160201b831117156100f557600080fd5b91908080601f01602080910402602001604051908101604052809392919081815260200183838082843760009201919091525092955061046b945050505050565b604080519115158252519081900360200190f35b6101706004803603602081101561016057600080fd5b50356001600160a01b03166104ee565b6040805160208082528351818301528351919283929083019185019080838360005b838110156101aa578181015183820152602001610192565b50505050905090810190601f1680156101d75780820380516001836020036101000a031916815260200191505b509250505060405180910390f35b610170600480360360208110156101fb57600080fd5b50356001600160a01b0316610599565b61034f6004803603608081101561022157600080fd5b6001600160a01b038235169190810190604081016020820135600160201b81111561024b57600080fd5b82018360208201111561025d57600080fd5b803590602001918460018302840111600160201b8311171561027e57600080fd5b91908080601f0160208091040260200160405190810160405280939291908181526020018383808284376000920191909152509295949360208101935035915050600160201b8111156102d057600080fd5b8201836020820111156102e257600080fd5b803590602001918460018302840111600160201b8311171561030357600080fd5b91908080601f016020809104026020016040519081016040528093929190818152602001838380828437600092019190915250929550505090356001600160a01b0316915061060e9050565b604080516001600160a01b039092168252519081900360200190f35b61034f6004803603602081101561038157600080fd5b50356001600160a01b03166107e9565b610136600480360360408110156103a757600080fd5b6001600160a01b038235169190810190604081016020820135600160201b8111156103d157600080fd5b8201836020820111156103e357600080fd5b803590602001918460018302840111600160201b8311171561040457600080fd5b91908080601f01602080910402602001604051908101604052809392919081815260200183838082843760009201919091525092955061080a945050505050565b61034f6004803603602081101561045b57600080fd5b50356001600160a01b0316610883565b600080546001600160a01b031633146104b55760405162461bcd60e51b81526004018080602001828103825260478152602001806109406047913960600191505060405180910390fd5b6001600160a01b038316600090815260026020818152604090922084516104e4939190920191908501906108a4565b5060019392505050565b6001600160a01b0381166000908152600260208181526040928390208201805484516001821615610100026000190190911693909304601f8101839004830284018301909452838352606093909183018282801561058d5780601f106105625761010080835404028352916020019161058d565b820191906000526020600020905b81548152906001019060200180831161057057829003601f168201915b50505050509050919050565b6001600160a01b0381166000908152600260208181526040928390206001908101805485519281161561010002600019011693909304601f810183900483028201830190945283815260609390929183018282801561058d5780601f106105625761010080835404028352916020019161058d565b6000806002334260405160200180836001600160a01b03166001600160a01b031660601b8152601401828152602001925050506040516020818303038152906040526040518082805190602001908083835b6020831061067f5780518252601f199092019160209182019101610660565b51815160209384036101000a60001901801990921691161790526040519190930194509192505080830381855afa1580156106be573d6000803e3d6000fd5b5050506040513d60208110156106d357600080fd5b50516001600160a01b03808216600081815260026020818152604080842080546001600160a01b031916968e169690961786558051808201909152600781526613db88121bdb1960ca1b81830190815294909352525192935061073b926001909201916108a4565b506001600160a01b0381166000908152600260208181526040909220875161076b939190920191908801906108a4565b506001600160a01b0381166000908152600260209081526040909120855161079b926003909201918701906108a4565b506001600160a01b0380821660009081526002602052604090204260048201556005810180549286166001600160a01b03199384161790556006018054909116331790559050949350505050565b6001600160a01b039081166000908152600260205260409020600501541690565b600080546001600160a01b031633146108545760405162461bcd60e51b81526004018080602001828103825260478152602001806109406047913960600191505060405180910390fd5b6001600160a01b038316600090815260026020908152604090912083516104e4926001909201918501906108a4565b6001600160a01b039081166000908152600260205260409020600601541690565b828054600181600116156101000203166002900490600052602060002090601f016020900481019282601f106108e557805160ff1916838001178555610912565b82800160010185558215610912579182015b828111156109125782518255916020019190600101906108f7565b5061091e929150610922565b5090565b61093c91905b8082111561091e5760008155600101610928565b9056fe5065726d697373696f6e2064656e6965642120546869732066756e6374696f6e206973207265737472696374656420746f2074686520636f6e74726163747327206f776e65722ea265627a7a7231582017ac920ea36bf9df3e7afd05bc7016880c08ecf9051160c30c2a319c4b5aac2d64736f6c63430005100032",
  "source": "// SPDX-License-Identifier: GPL-3.0\n\npragma solidity ^0.5.0;\n\n// this contract allows supply chain parties to track shipment of products \ncontract Logistics {\n    \n    address Owner;\n\n    address[] shipments;\n    \n    ////////// DEFENTION //////////\n    \n    struct Shipment {\n        // order data\n        address order_id;\n        \n        // shipment data\n        string shippment_status;\n        string current_location;\n        string delivery_location;\n        uint shipment_date;\n        \n        address reciever; \n        address customer;\n        \n    }\n    \n     \n    constructor() public{\n        Owner = msg.sender;\n    }\n    \n     ////////// MODIFIERS //////////\n     \n    modifier onlyOwner() {\n        require(Owner == msg.sender, \n        \"Permission denied! This function is restricted to the contracts' owner.\");\n        _;\n    }\n    \n    ////////// MAPPING PART //////////\n    \n    mapping(address => Shipment) shippmentMapping;\n    \n    \n    ////////// EVENTS //////////\n    event SendShipment(address _order_id, string _current_location, string _delivery_location,  address _reciever);\n    \n    \n    ////////// FUNCTIONS //////////\n    function sendShipment(\n            address _order_id, \n            string memory _current_location, \n            string memory _delivery_location,  \n            address _reciever\n        ) public returns(address) {\n        address shipment_id = address(uint160(uint(sha256(abi.encodePacked(msg.sender, block.timestamp)))));\n        \n        shippmentMapping[shipment_id].order_id = _order_id;\n        \n        shippmentMapping[shipment_id].shippment_status = \"On Hold\";\n        shippmentMapping[shipment_id].current_location = _current_location;\n        shippmentMapping[shipment_id].delivery_location = _delivery_location;\n        \n        shippmentMapping[shipment_id].shipment_date = block.timestamp;\n        shippmentMapping[shipment_id].reciever = _reciever;\n        shippmentMapping[shipment_id].customer = msg.sender;\n        \n        return shipment_id;\n    }\n    \n    // updates the locations of the shipment with the given id\n    function updateCurrentLocation(address shippment_id, string memory _location) public onlyOwner returns(bool) {\n        shippmentMapping[shippment_id].current_location = _location;\n        return true;\n    } \n    \n    // updates the status of the shipment wit hthe given id\n    function updateStatus(address shippment_id, string memory _status) public onlyOwner returns(bool) {\n        shippmentMapping[shippment_id].shippment_status = _status;\n        return true;\n    } \n    \n    // returns the status of the shippment with given id\n    function getStatus(address shippment_id) public view returns(string memory) {\n        return shippmentMapping[shippment_id].shippment_status;\n    }\n    \n    // returns the current location of the shipment with the given id\n    function getCurrentLocation(address shippment_id) public view returns(string memory) {\n        return shippmentMapping[shippment_id].current_location;\n    }\n\n    function getReciever(address shippment_id) public view returns(address) {\n        return shippmentMapping[shippment_id].reciever;\n    }\n\n    function getCustomer(address shippment_id) public view returns(address) {\n        return shippmentMapping[shippment_id].customer;\n    }\n    \n    \n}",
  "sourcePath": "/projects/BC-Group8/ethereum/contracts/Logistics.sol",
  "compiler": {
    "name": "solc",
    "version": "0.5.16+commit.9c3226ce.Emscripten.clang"
  },
  "schemaVersion": "3.4.0",
  "updatedAt": "2021-07-08T00:01:56.000Z",
  "devdoc": {
    "methods": {}
  },
  "userdoc": {
    "methods": {
      "sendShipment(address,string,string,address)": {
        "notice": "/////// FUNCTIONS //////////"
      }
    }
  }
}