{
  "contractName": "Logistics",
  "abi": [
    {
      "inputs": [],
      "payable": false,
      "stateMutability": "nonpayable",
      "type": "constructor"
    },
    {
      "anonymous": false,
      "inputs": [
        {
          "indexed": false,
          "internalType": "address",
          "name": "_order_id",
          "type": "address"
        },
        {
          "indexed": false,
          "internalType": "string",
          "name": "_current_location",
          "type": "string"
        },
        {
          "indexed": false,
          "internalType": "string",
          "name": "_delivery_location",
          "type": "string"
        },
        {
          "indexed": false,
          "internalType": "address",
          "name": "_reciever",
          "type": "address"
        }
      ],
      "name": "SendShipment",
      "type": "event"
    },
    {
      "constant": false,
      "inputs": [
        {
          "internalType": "address",
          "name": "_order_id",
          "type": "address"
        },
        {
          "internalType": "string",
          "name": "_current_location",
          "type": "string"
        },
        {
          "internalType": "string",
          "name": "_delivery_location",
          "type": "string"
        },
        {
          "internalType": "address",
          "name": "_reciever",
          "type": "address"
        }
      ],
      "name": "sendShipment",
      "outputs": [
        {
          "internalType": "address",
          "name": "",
          "type": "address"
        }
      ],
      "payable": false,
      "stateMutability": "nonpayable",
      "type": "function"
    },
    {
      "constant": false,
      "inputs": [
        {
          "internalType": "address",
          "name": "shippment_id",
          "type": "address"
        },
        {
          "internalType": "string",
          "name": "_location",
          "type": "string"
        }
      ],
      "name": "updateLocation",
      "outputs": [
        {
          "internalType": "bool",
          "name": "",
          "type": "bool"
        }
      ],
      "payable": false,
      "stateMutability": "nonpayable",
      "type": "function"
    },
    {
      "constant": false,
      "inputs": [
        {
          "internalType": "address",
          "name": "shippment_id",
          "type": "address"
        },
        {
          "internalType": "string",
          "name": "_status",
          "type": "string"
        }
      ],
      "name": "updateStatus",
      "outputs": [
        {
          "internalType": "bool",
          "name": "",
          "type": "bool"
        }
      ],
      "payable": false,
      "stateMutability": "nonpayable",
      "type": "function"
    },
    {
      "constant": true,
      "inputs": [
        {
          "internalType": "address",
          "name": "shippment_id",
          "type": "address"
        }
      ],
      "name": "getStatus",
      "outputs": [
        {
          "internalType": "string",
          "name": "",
          "type": "string"
        }
      ],
      "payable": false,
      "stateMutability": "view",
      "type": "function"
    },
    {
      "constant": true,
      "inputs": [
        {
          "internalType": "address",
          "name": "shippment_id",
          "type": "address"
        }
      ],
      "name": "getCurrentLocation",
      "outputs": [
        {
          "internalType": "string",
          "name": "",
          "type": "string"
        }
      ],
      "payable": false,
      "stateMutability": "view",
      "type": "function"
    }
  ],
  "bytecode": "0x608060405234801561001057600080fd5b50600080546001600160a01b03191633179055610903806100326000396000f3fe608060405234801561001057600080fd5b50600436106100575760003560e01c8063295aecb81461005c57806330ccebb5146100f7578063721343921461011d5780639bab7f4a1461027d578063d71041da14610345575b600080fd5b6100826004803603602081101561007257600080fd5b50356001600160a01b03166103f9565b6040805160208082528351818301528351919283929083019185019080838360005b838110156100bc5781810151838201526020016100a4565b50505050905090810190601f1680156100e95780820380516001836020036101000a031916815260200191505b509250505060405180910390f35b6100826004803603602081101561010d57600080fd5b50356001600160a01b03166104a4565b6102616004803603608081101561013357600080fd5b6001600160a01b038235169190810190604081016020820135600160201b81111561015d57600080fd5b82018360208201111561016f57600080fd5b803590602001918460018302840111600160201b8311171561019057600080fd5b91908080601f0160208091040260200160405190810160405280939291908181526020018383808284376000920191909152509295949360208101935035915050600160201b8111156101e257600080fd5b8201836020820111156101f457600080fd5b803590602001918460018302840111600160201b8311171561021557600080fd5b91908080601f016020809104026020016040519081016040528093929190818152602001838380828437600092019190915250929550505090356001600160a01b031691506105199050565b604080516001600160a01b039092168252519081900360200190f35b6103316004803603604081101561029357600080fd5b6001600160a01b038235169190810190604081016020820135600160201b8111156102bd57600080fd5b8201836020820111156102cf57600080fd5b803590602001918460018302840111600160201b831117156102f057600080fd5b91908080601f0160208091040260200160405190810160405280939291908181526020018383808284376000920191909152509295506106f4945050505050565b604080519115158252519081900360200190f35b6103316004803603604081101561035b57600080fd5b6001600160a01b038235169190810190604081016020820135600160201b81111561038557600080fd5b82018360208201111561039757600080fd5b803590602001918460018302840111600160201b831117156103b857600080fd5b91908080601f016020809104026020016040519081016040528093929190818152602001838380828437600092019190915250929550610777945050505050565b6001600160a01b0381166000908152600160208181526040928390206002908101805485519481161561010002600019011691909104601f810183900483028401830190945283835260609390918301828280156104985780601f1061046d57610100808354040283529160200191610498565b820191906000526020600020905b81548152906001019060200180831161047b57829003601f168201915b50505050509050919050565b6001600160a01b038116600090815260016020818152604092839020820180548451600294821615610100026000190190911693909304601f810183900483028401830190945283835260609390918301828280156104985780601f1061046d57610100808354040283529160200191610498565b6000806002334260405160200180836001600160a01b03166001600160a01b031660601b8152601401828152602001925050506040516020818303038152906040526040518082805190602001908083835b6020831061058a5780518252601f19909201916020918201910161056b565b51815160209384036101000a60001901801990921691161790526040519190930194509192505080830381855afa1580156105c9573d6000803e3d6000fd5b5050506040513d60208110156105de57600080fd5b50516001600160a01b03808216600081815260016020818152604080842080546001600160a01b031916968e169690961786558051808201909152600781526613db88121bdb1960ca1b818301908152949093528190529051939450610646939201916107ec565b506001600160a01b03811660009081526001602090815260409091208651610676926002909201918801906107ec565b506001600160a01b038116600090815260016020908152604090912085516106a6926003909201918701906107ec565b506001600160a01b0380821660009081526001602052604090204260048201556005810180549286166001600160a01b03199384161790556006018054909116331790559050949350505050565b600080546001600160a01b0316331461073e5760405162461bcd60e51b81526004018080602001828103825260478152602001806108886047913960600191505060405180910390fd5b6001600160a01b0383166000908152600160208181526040909220845161076d939190920191908501906107ec565b5060019392505050565b600080546001600160a01b031633146107c15760405162461bcd60e51b81526004018080602001828103825260478152602001806108886047913960600191505060405180910390fd5b6001600160a01b0383166000908152600160209081526040909120835161076d926002909201918501905b828054600181600116156101000203166002900490600052602060002090601f016020900481019282601f1061082d57805160ff191683800117855561085a565b8280016001018555821561085a579182015b8281111561085a57825182559160200191906001019061083f565b5061086692915061086a565b5090565b61088491905b808211156108665760008155600101610870565b9056fe5065726d697373696f6e2064656e6965642120546869732066756e6374696f6e206973207265737472696374656420746f2074686520636f6e74726163747327206f776e65722ea265627a7a72315820f3188e9dc9ff73363d9ee7a42f3c137b2c6bbf08553d035e1d638320e994dd7864736f6c63430005100032",
  "source": "// SPDX-License-Identifier: GPL-3.0\n\npragma solidity ^0.5.0;\n\n// this contract allows supply chain parties to track shipment of products \ncontract Logistics {\n    \n    address Owner;\n    \n    ////////// DEFENTION //////////\n    \n    struct Shipment {\n        // order data\n        address order_id;\n        \n        // shipment data\n        string shippment_status;\n        string current_location;\n        string delivery_location;\n        uint shipment_date;\n        \n        address reciever; \n        address customer;\n        \n    }\n    \n     \n    constructor() public{\n        Owner = msg.sender;\n    }\n    \n     ////////// MODIFIERS //////////\n     \n    modifier onlyOwner() {\n        require(Owner == msg.sender, \n        \"Permission denied! This function is restricted to the contracts' owner.\");\n        _;\n    }\n    \n    ////////// MAPPING PART //////////\n    \n    mapping(address => Shipment) shippmentMapping;\n    \n    \n    ////////// EVENTS //////////\n    event SendShipment(address _order_id, string _current_location, string _delivery_location,  address _reciever);\n    \n    \n    ////////// FUNCTIONS //////////\n    function sendShipment(address _order_id, string memory _current_location, string memory _delivery_location,  address _reciever) public returns(address) {\n        address shipment_id = address(uint160(uint(sha256(abi.encodePacked(msg.sender, block.timestamp)))));\n        \n        shippmentMapping[shipment_id].order_id = _order_id;\n        \n        shippmentMapping[shipment_id].shippment_status = \"On Hold\";\n        shippmentMapping[shipment_id].current_location = _current_location;\n        shippmentMapping[shipment_id].delivery_location = _delivery_location;\n        \n        shippmentMapping[shipment_id].shipment_date = block.timestamp;\n        shippmentMapping[shipment_id].reciever = _reciever;\n        shippmentMapping[shipment_id].customer = msg.sender;\n        \n        return shipment_id;\n    }\n    \n    // updates the locations of the shipment with the given id\n    function updateLocation(address shippment_id, string memory _location) public onlyOwner returns(bool) {\n        shippmentMapping[shippment_id].current_location = _location;\n        return true;\n    } \n    \n    // updates the status of the shipment wit hthe given id\n    function updateStatus(address shippment_id, string memory _status) public onlyOwner returns(bool) {\n        shippmentMapping[shippment_id].shippment_status = _status;\n        return true;\n    } \n    \n    // returns the status of the shippment with given id\n    function getStatus(address shippment_id) public view returns(string memory) {\n        return shippmentMapping[shippment_id].shippment_status;\n    }\n    \n    // returns the current location of the shipment with the given id\n    function getCurrentLocation(address shippment_id) public view returns(string memory) {\n        return shippmentMapping[shippment_id].current_location;\n    }\n    \n    \n}",
  "sourcePath": "/projects/BC-Group8/ethereum/contracts/Logistics.sol",
  "compiler": {
    "name": "solc",
    "version": "0.5.16+commit.9c3226ce.Emscripten.clang"
  },
  "schemaVersion": "3.4.0",
  "updatedAt": "2021-07-07T14:14:58.158Z",
  "devdoc": {
    "methods": {}
  },
  "userdoc": {
    "methods": {
      "sendShipment(address,string,string,address)": {
        "notice": "/////// FUNCTIONS //////////"
      }
    }
  }
}