{
  "contractName": "Logistics",
  "abi": [
    {
      "inputs": [],
      "payable": false,
      "stateMutability": "nonpayable",
      "type": "constructor"
    },
    {
      "anonymous": false,
      "inputs": [
        {
          "indexed": false,
          "internalType": "address",
          "name": "_shipment_id",
          "type": "address"
        },
        {
          "indexed": false,
          "internalType": "address",
          "name": "_sender",
          "type": "address"
        }
      ],
      "name": "DeleteShipment",
      "type": "event"
    },
    {
      "anonymous": false,
      "inputs": [
        {
          "indexed": false,
          "internalType": "address",
          "name": "_shipment_id",
          "type": "address"
        },
        {
          "indexed": false,
          "internalType": "address",
          "name": "_sender",
          "type": "address"
        }
      ],
      "name": "ReceiveShipment",
      "type": "event"
    },
    {
      "anonymous": false,
      "inputs": [
        {
          "indexed": false,
          "internalType": "address",
          "name": "_product_id",
          "type": "address"
        },
        {
          "indexed": false,
          "internalType": "string",
          "name": "_current_location",
          "type": "string"
        },
        {
          "indexed": false,
          "internalType": "string",
          "name": "_delivery_location",
          "type": "string"
        },
        {
          "indexed": false,
          "internalType": "address",
          "name": "_sender",
          "type": "address"
        }
      ],
      "name": "SendShipment",
      "type": "event"
    },
    {
      "constant": false,
      "inputs": [
        {
          "internalType": "address",
          "name": "_product_id",
          "type": "address"
        },
        {
          "internalType": "uint256",
          "name": "_quantitiy",
          "type": "uint256"
        },
        {
          "internalType": "string",
          "name": "_current_location",
          "type": "string"
        },
        {
          "internalType": "string",
          "name": "_delivery_location",
          "type": "string"
        }
      ],
      "name": "sendShipment",
      "outputs": [
        {
          "internalType": "address",
          "name": "",
          "type": "address"
        }
      ],
      "payable": false,
      "stateMutability": "nonpayable",
      "type": "function"
    },
    {
      "constant": true,
      "inputs": [
        {
          "internalType": "address",
          "name": "_shipment_id",
          "type": "address"
        }
      ],
      "name": "getShipment",
      "outputs": [
        {
          "internalType": "address",
          "name": "",
          "type": "address"
        },
        {
          "internalType": "uint256",
          "name": "",
          "type": "uint256"
        },
        {
          "internalType": "string",
          "name": "",
          "type": "string"
        },
        {
          "internalType": "string",
          "name": "",
          "type": "string"
        },
        {
          "internalType": "string",
          "name": "",
          "type": "string"
        },
        {
          "internalType": "address",
          "name": "",
          "type": "address"
        }
      ],
      "payable": false,
      "stateMutability": "view",
      "type": "function"
    },
    {
      "constant": false,
      "inputs": [
        {
          "internalType": "address",
          "name": "_shipment_id",
          "type": "address"
        },
        {
          "internalType": "uint256",
          "name": "_quantity",
          "type": "uint256"
        },
        {
          "internalType": "string",
          "name": "_location",
          "type": "string"
        }
      ],
      "name": "receiveShipment",
      "outputs": [
        {
          "internalType": "bool",
          "name": "",
          "type": "bool"
        }
      ],
      "payable": false,
      "stateMutability": "nonpayable",
      "type": "function"
    },
    {
      "constant": false,
      "inputs": [
        {
          "internalType": "address",
          "name": "_shipment_id",
          "type": "address"
        }
      ],
      "name": "deleteShippment",
      "outputs": [
        {
          "internalType": "bool",
          "name": "",
          "type": "bool"
        }
      ],
      "payable": false,
      "stateMutability": "nonpayable",
      "type": "function"
    },
    {
      "constant": false,
      "inputs": [
        {
          "internalType": "address",
          "name": "shipment_id",
          "type": "address"
        },
        {
          "internalType": "string",
          "name": "_location",
          "type": "string"
        }
      ],
      "name": "updateCurrentLocation",
      "outputs": [
        {
          "internalType": "bool",
          "name": "",
          "type": "bool"
        }
      ],
      "payable": false,
      "stateMutability": "nonpayable",
      "type": "function"
    },
    {
      "constant": false,
      "inputs": [
        {
          "internalType": "address",
          "name": "_shipment_id",
          "type": "address"
        },
        {
          "internalType": "string",
          "name": "_status",
          "type": "string"
        }
      ],
      "name": "updateStatus",
      "outputs": [
        {
          "internalType": "bool",
          "name": "",
          "type": "bool"
        }
      ],
      "payable": false,
      "stateMutability": "nonpayable",
      "type": "function"
    },
    {
      "constant": true,
      "inputs": [
        {
          "internalType": "address",
          "name": "shipment_id",
          "type": "address"
        }
      ],
      "name": "getStatus",
      "outputs": [
        {
          "internalType": "string",
          "name": "",
          "type": "string"
        }
      ],
      "payable": false,
      "stateMutability": "view",
      "type": "function"
    },
    {
      "constant": true,
      "inputs": [
        {
          "internalType": "address",
          "name": "_shipment_id",
          "type": "address"
        }
      ],
      "name": "getCurrentLocation",
      "outputs": [
        {
          "internalType": "string",
          "name": "",
          "type": "string"
        }
      ],
      "payable": false,
      "stateMutability": "view",
      "type": "function"
    },
    {
      "constant": true,
      "inputs": [],
      "name": "getPaymentValue",
      "outputs": [
        {
          "internalType": "uint256",
          "name": "",
          "type": "uint256"
        }
      ],
      "payable": false,
      "stateMutability": "view",
      "type": "function"
    },
    {
      "constant": false,
      "inputs": [
        {
          "internalType": "uint256",
          "name": "_value",
          "type": "uint256"
        }
      ],
      "name": "setPaymentValue",
      "outputs": [
        {
          "internalType": "bool",
          "name": "",
          "type": "bool"
        }
      ],
      "payable": false,
      "stateMutability": "nonpayable",
      "type": "function"
    },
    {
      "constant": true,
      "inputs": [
        {
          "internalType": "address",
          "name": "_shipment_id",
          "type": "address"
        }
      ],
      "name": "isReadyToPay",
      "outputs": [
        {
          "internalType": "bool",
          "name": "",
          "type": "bool"
        }
      ],
      "payable": false,
      "stateMutability": "view",
      "type": "function"
    }
  ],
  "bytecode": "0x608060405234801561001057600080fd5b50600080546001600160a01b0319163317905561160c806100326000396000f3fe608060405234801561001057600080fd5b50600436106100a95760003560e01c80635e9b128c116100715780635e9b128c146103ab57806366c7302b146103d15780636955cb61146103ee5780637a495f7d146104a7578063864baa6a1461064a5780639bab7f4a14610670576100a9565b806310657cfd146100ae578063295aecb81461017657806330ccebb51461021157806345c133321461023757806358ea2c0f14610391575b600080fd5b610162600480360360408110156100c457600080fd5b6001600160a01b038235169190810190604081016020820135600160201b8111156100ee57600080fd5b82018360208201111561010057600080fd5b803590602001918460018302840111600160201b8311171561012157600080fd5b91908080601f016020809104026020016040519081016040528093929190818152602001838380828437600092019190915250929550610724945050505050565b604080519115158252519081900360200190f35b61019c6004803603602081101561018c57600080fd5b50356001600160a01b03166107a7565b6040805160208082528351818301528351919283929083019185019080838360005b838110156101d65781810151838201526020016101be565b50505050905090810190601f1680156102035780820380516001836020036101000a031916815260200191505b509250505060405180910390f35b61019c6004803603602081101561022757600080fd5b50356001600160a01b0316610854565b6103756004803603608081101561024d57600080fd5b6001600160a01b0382351691602081013591810190606081016040820135600160201b81111561027c57600080fd5b82018360208201111561028e57600080fd5b803590602001918460018302840111600160201b831117156102af57600080fd5b91908080601f0160208091040260200160405190810160405280939291908181526020018383808284376000920191909152509295949360208101935035915050600160201b81111561030157600080fd5b82018360208201111561031357600080fd5b803590602001918460018302840111600160201b8311171561033457600080fd5b91908080601f0160208091040260200160405190810160405280939291908181526020018383808284376000920191909152509295506108c8945050505050565b604080516001600160a01b039092168252519081900360200190f35b610399610bb4565b60408051918252519081900360200190f35b610162600480360360208110156103c157600080fd5b50356001600160a01b0316610bbb565b610162600480360360208110156103e757600080fd5b5035610da1565b6101626004803603606081101561040457600080fd5b6001600160a01b0382351691602081013591810190606081016040820135600160201b81111561043357600080fd5b82018360208201111561044557600080fd5b803590602001918460018302840111600160201b8311171561046657600080fd5b91908080601f016020809104026020016040519081016040528093929190818152602001838380828437600092019190915250929550610df4945050505050565b6104cd600480360360208110156104bd57600080fd5b50356001600160a01b031661110d565b60405180876001600160a01b03166001600160a01b03168152602001868152602001806020018060200180602001856001600160a01b03166001600160a01b03168152602001848103845288818151815260200191508051906020019080838360005b83811015610548578181015183820152602001610530565b50505050905090810190601f1680156105755780820380516001836020036101000a031916815260200191505b50848103835287518152875160209182019189019080838360005b838110156105a8578181015183820152602001610590565b50505050905090810190601f1680156105d55780820380516001836020036101000a031916815260200191505b50848103825286518152865160209182019188019080838360005b838110156106085781810151838201526020016105f0565b50505050905090810190601f1680156106355780820380516001836020036101000a031916815260200191505b50995050505050505050505060405180910390f35b6101626004803603602081101561066057600080fd5b50356001600160a01b0316611313565b6101626004803603604081101561068657600080fd5b6001600160a01b038235169190810190604081016020820135600160201b8111156106b057600080fd5b8201836020820111156106c257600080fd5b803590602001918460018302840111600160201b831117156106e357600080fd5b91908080601f01602080910402602001604051908101604052809392919081815260200183838082843760009201919091525092955061141a945050505050565b600080546001600160a01b0316331461076e5760405162461bcd60e51b815260040180806020018281038252604781526020018061156f6047913960600191505060405180910390fd5b6001600160a01b0383166000908152600260209081526040909120835161079d9260039092019185019061148f565b5060019392505050565b6001600160a01b038116600090815260026020818152604092839020600301805484516001821615610100026000190190911693909304601f810183900483028401830190945283835260609390918301828280156108475780601f1061081c57610100808354040283529160200191610847565b820191906000526020600020905b81548152906001019060200180831161082a57829003601f168201915b505050505090505b919050565b6001600160a01b0381166000908152600260208181526040928390208201805484516001821615610100026000190190911693909304601f810183900483028401830190945283835260609390918301828280156108475780601f1061081c57610100808354040283529160200191610847565b6000806002334260405160200180836001600160a01b03166001600160a01b031660601b8152601401828152602001925050506040516020818303038152906040526040518082805190602001908083835b602083106109395780518252601f19909201916020918201910161091a565b51815160209384036101000a60001901801990921691161790526040519190930194509192505080830381855afa158015610978573d6000803e3d6000fd5b5050506040513d602081101561098d57600080fd5b50516001600160a01b03808216600081815260026020818152604080842080546001600160a01b031916968e16969096178655600186018c90558051808201909152600781526613db88121bdb1960ca1b8183019081529490935281905290519394506109fc9392019161148f565b506001600160a01b03811660009081526002602090815260409091208551610a2c9260039092019187019061148f565b506001600160a01b03811660009081526002602090815260409091208451610a5c9260049092019186019061148f565b506001600160a01b03808216600090815260026020908152604080832042600582015560060180546001600160a01b031916339081179091558151948b1685526060850181905260808584018181528a519187019190915289517f12b230df1c6db9891640995927020db6570d6789cc68e176b7f40d4458a91e10968d968c968c969294939285019260a0860192918901918190849084905b83811015610b0d578181015183820152602001610af5565b50505050905090810190601f168015610b3a5780820380516001836020036101000a031916815260200191505b50838103825285518152855160209182019187019080838360005b83811015610b6d578181015183820152602001610b55565b50505050905090810190601f168015610b9a5780820380516001836020036101000a031916815260200191505b50965050505050505060405180910390a195945050505050565b6001545b90565b600080546001600160a01b03163314610c055760405162461bcd60e51b815260040180806020018281038252604781526020018061156f6047913960600191505060405180910390fd5b600260405180604001604052806008815260200167149958da595d995960c21b8152506040518082805190602001908083835b60208310610c575780518252601f199092019160209182019101610c38565b51815160209384036101000a60001901801990921691161790526040519190930194509192505080830381855afa158015610c96573d6000803e3d6000fd5b5050506040513d6020811015610cab57600080fd5b50516001600160a01b03831660009081526002602081905260409182902091519181018054919290918190839060001961010060018316150201168590048015610d2c5780601f10610d0a576101008083540402835291820191610d2c565b820191906000526020600020905b815481529060010190602001808311610d18575b5050915050602060405180830381855afa158015610d4e573d6000803e3d6000fd5b5050506040513d6020811015610d6357600080fd5b5051148015610d8c57506001600160a01b03821660009081526002602052604090206005015442115b15610d995750600161084f565b506000919050565b600080546001600160a01b03163314610deb5760405162461bcd60e51b815260040180806020018281038252604781526020018061156f6047913960600191505060405180910390fd5b50600190815590565b60008360405160200180806614da1a5c1c195960ca1b81525060070190506040516020818303038152906040528051906020012060026000836001600160a01b03166001600160a01b031681526020019081526020016000206002016040516020018082805460018160011615610100020316600290048015610eae5780601f10610e8c576101008083540402835291820191610eae565b820191906000526020600020905b815481529060010190602001808311610e9a575b50509150506040516020818303038152906040528051906020012014610f055760405162461bcd60e51b81526004018080602001828103825260228152602001806115b66022913960400191505060405180910390fd5b6001600160a01b0385166000908152600260205260409020600101548414801561106e57506002836040518082805190602001908083835b60208310610f5c5780518252601f199092019160209182019101610f3d565b51815160209384036101000a60001901801990921691161790526040519190930194509192505080830381855afa158015610f9b573d6000803e3d6000fd5b5050506040513d6020811015610fb057600080fd5b50516001600160a01b0386166000908152600260208190526040918290209151600490920180549192909181908390600019610100600183161502011685900480156110335780601f10611011576101008083540402835291820191611033565b820191906000526020600020905b81548152906001019060200180831161101f575b5050915050602060405180830381855afa158015611055573d6000803e3d6000fd5b5050506040513d602081101561106a57600080fd5b5051145b15611102576040805180820182526008815267149958da595d995960c21b60208083019182526001600160a01b03891660009081526002918290529390932091516110bd93929092019161148f565b50604080516001600160a01b038716815233602082015281517ff8e8943928e4cc69ad42a9b94d602783e914a46d4392b7071f19973b72820b49929181900390910190a15b506001949350505050565b6001600160a01b03818116600090815260026020818152604080842080546001808301546006840154848801805487516101009582161595909502600019011698909804601f810188900488028401880190965285835297988998606098899889988c98978516979596929560038101956004909101941692918691908301828280156111db5780601f106111b0576101008083540402835291602001916111db565b820191906000526020600020905b8154815290600101906020018083116111be57829003601f168201915b5050865460408051602060026001851615610100026000190190941693909304601f8101849004840282018401909252818152959950889450925084019050828280156112695780601f1061123e57610100808354040283529160200191611269565b820191906000526020600020905b81548152906001019060200180831161124c57829003601f168201915b5050855460408051602060026001851615610100026000190190941693909304601f8101849004840282018401909252818152959850879450925084019050828280156112f75780601f106112cc576101008083540402835291602001916112f7565b820191906000526020600020905b8154815290600101906020018083116112da57829003601f168201915b5050505050915095509550955095509550955091939550919395565b600080546001600160a01b0316331461135d5760405162461bcd60e51b815260040180806020018281038252604781526020018061156f6047913960600191505060405180910390fd5b6001600160a01b0382166000908152600260208190526040822080546001600160a01b031916815560018101839055919061139a9083018261150d565b6113a860038301600061150d565b6113b660048301600061150d565b506000600582015560060180546001600160a01b0319169055604080516001600160a01b038416815233602082015281517f8b66e63758d237d9d280997a73144046a6935f4daa9f5016e7b5ba7440ab1e3f929181900390910190a1506001919050565b600080546001600160a01b031633146114645760405162461bcd60e51b815260040180806020018281038252604781526020018061156f6047913960600191505060405180910390fd5b6001600160a01b0383166000908152600260208181526040909220845161079d939190920191908501905b828054600181600116156101000203166002900490600052602060002090601f016020900481019282601f106114d057805160ff19168380011785556114fd565b828001600101855582156114fd579182015b828111156114fd5782518255916020019190600101906114e2565b50611509929150611554565b5090565b50805460018160011615610100020316600290046000825580601f106115335750611551565b601f0160209004906000526020600020908101906115519190611554565b50565b610bb891905b80821115611509576000815560010161155a56fe5065726d697373696f6e2064656e6965642120546869732066756e6374696f6e206973207265737472696374656420746f2074686520636f6e74726163747327206f776e65722e546869732073686970706d656e74206973206e6f742073686970706564207965742ea265627a7a72315820b1d6d027ca6f6084abd85421d67dc7df731f6bb192c0d36935d223fc219abf2e64736f6c63430005100032",
  "source": "// SPDX-License-Identifier: GPL-3.0\n\npragma solidity ^0.5.0;\n\n// this contract allows supply chain parties to track shipment of products \ncontract Logistics {\n    \n    address owner;\n    uint paymentValue;\n    \n    ////////// DEFENTION //////////\n    \n    struct Shipment {\n        // product data\n        address product_id;   \n        uint quantity;\n        // shipment data\n        string shipment_status;\n        string current_location;\n        string delivery_location;\n        uint shipment_date;\n        \n        address sender; \n    }\n    \n     \n    constructor() public{\n        owner = msg.sender;\n    }\n    \n     ////////// MODIFIERS //////////\n     \n    modifier onlyOwner() {\n        require(owner == msg.sender, \n        \"Permission denied! This function is restricted to the contracts' owner.\");\n        _;\n    }\n    \n    modifier onlyShippedShipment(address _shipment_id) {\n         require(keccak256(abi.encodePacked((shipmentMapping[_shipment_id].shipment_status))) == \n         keccak256(abi.encodePacked((\"Shipped\"))), \n        \"This shippment is not shipped yet.\");\n        _;\n    }\n    \n    ////////// MAPPING PART //////////\n    \n    mapping(address => Shipment) shipmentMapping;\n    \n    \n    ////////// EVENTS //////////\n    event SendShipment(address _product_id, string _current_location, string _delivery_location, address _sender);\n    event ReceiveShipment(address _shipment_id, address _sender);\n    event DeleteShipment(address _shipment_id, address _sender);\n    \n    ////////// FUNCTIONS //////////\n    \n    // sends a shipment with the given details\n    function sendShipment(\n        address _product_id,\n        uint _quantitiy,\n        string memory _current_location, \n        string memory _delivery_location) \n        public returns(address) {\n        address shipment_id = address(uint160(uint(sha256(abi.encodePacked(msg.sender, block.timestamp)))));\n        \n        shipmentMapping[shipment_id].product_id = _product_id;\n        shipmentMapping[shipment_id].quantity = _quantitiy;\n        shipmentMapping[shipment_id].shipment_status = \"On Hold\";\n        shipmentMapping[shipment_id].current_location = _current_location;\n        shipmentMapping[shipment_id].delivery_location = _delivery_location;\n        \n        shipmentMapping[shipment_id].shipment_date = block.timestamp;\n        shipmentMapping[shipment_id].sender = msg.sender;\n        \n        emit SendShipment(_product_id, _current_location, _delivery_location, msg.sender);\n        \n        return shipment_id;\n    }\n    \n    \n    // displays the details of shipment: \n    // product id, quantity, shipment status, current location, delievery location, sender\n    function getShipment(\n        address _shipment_id) \n        public view returns \n        (address, uint, string memory, string memory, string  memory, address) {\n            return (shipmentMapping[_shipment_id].product_id,\n                shipmentMapping[_shipment_id].quantity, \n                shipmentMapping[_shipment_id].shipment_status,\n                shipmentMapping[_shipment_id].current_location,\n                shipmentMapping[_shipment_id].delivery_location,\n                shipmentMapping[_shipment_id].sender);\n        } \n    \n    // recieves a shipment if the quantity and the deliviry location are correct\n    function receiveShipment(\n        address _shipment_id, \n        uint _quantity,\n        string memory _location) \n        onlyShippedShipment(_shipment_id) \n        public returns(bool) {\n            if(shipmentMapping[_shipment_id].quantity == _quantity && \n            sha256(bytes(shipmentMapping[_shipment_id].delivery_location)) \n            == sha256(bytes(_location))) {\n                // change shippment status if true\n                shipmentMapping[_shipment_id].shipment_status = \"Recieved\";\n                emit ReceiveShipment(_shipment_id, msg.sender);\n            }\n            \n            return true;\n    }\n    \n    // deletes a shippment with the given shippment id\n    function deleteShippment(\n        address _shipment_id)\n        public\n        onlyOwner() \n        returns(bool){\n            delete shipmentMapping[_shipment_id];\n            emit DeleteShipment(_shipment_id, msg.sender);\n            return true;\n        }\n    \n    // updates the locations of the shipment with the given id\n    function updateCurrentLocation(\n        address shipment_id, \n        string memory _location) \n        public onlyOwner \n        returns(bool) {\n            shipmentMapping[shipment_id].current_location = _location;\n            return true;\n    } \n    \n    // updates the status of the shipment wit hthe given id\n    function updateStatus(\n        address _shipment_id, \n        string memory _status) \n        public onlyOwner() \n        returns(bool) {\n            shipmentMapping[_shipment_id].shipment_status = _status;\n            return true;\n    } \n    \n    // returns the status of the shippment with given id\n    function getStatus(\n        address shipment_id) \n        public view \n        returns(string memory) {\n            return shipmentMapping[shipment_id].shipment_status;\n    }\n    \n    // returns the current location of the shipment with the given id\n    function getCurrentLocation(\n        address _shipment_id) \n        public view \n        returns(string memory) {\n            return shipmentMapping[_shipment_id].current_location;\n    }\n    \n    // returns the payment value presented in tokens\n    function getPaymentValue() \n    public view returns(uint) {\n        return paymentValue;\n    } \n    \n    // sets number of tokens \n    function setPaymentValue(uint _value) \n    public onlyOwner returns(bool) {\n        paymentValue = _value;\n        return true;\n    }\n    \n    // returns true if the shippment was received\n    function isReadyToPay(address _shipment_id) \n    public view \n    onlyOwner \n    returns(bool) {\n        if(sha256(bytes(shipmentMapping[_shipment_id].shipment_status)) ==\n            sha256(bytes(\"Recieved\")) &&\n            shipmentMapping[_shipment_id].shipment_date < now) {\n                return true;\n            }\n        return false;\n    } \n    \n}",
  "sourcePath": "/projects/BC-Group8/ethereum/contracts/Logistics.sol",
  "compiler": {
    "name": "solc",
    "version": "0.5.16+commit.9c3226ce.Emscripten.clang"
  },
  "schemaVersion": "3.4.0",
  "updatedAt": "2021-07-08T21:18:17.337Z",
  "devdoc": {
    "methods": {}
  },
  "userdoc": {
    "methods": {
      "sendShipment(address,uint256,string,string)": {
        "notice": "/////// FUNCTIONS //////////"
      }
    }
  }
}