{
  "contractName": "OrderCreator",
  "abi": [
    {
      "inputs": [],
      "payable": false,
      "stateMutability": "nonpayable",
      "type": "constructor"
    },
    {
      "anonymous": false,
      "inputs": [
        {
          "indexed": false,
          "internalType": "uint256",
          "name": "_item_id",
          "type": "uint256"
        },
        {
          "indexed": false,
          "internalType": "string",
          "name": "_item_name",
          "type": "string"
        },
        {
          "indexed": false,
          "internalType": "string",
          "name": "_order_location",
          "type": "string"
        },
        {
          "indexed": false,
          "internalType": "address",
          "name": "_reciever",
          "type": "address"
        }
      ],
      "name": "OrderCreate",
      "type": "event"
    },
    {
      "constant": false,
      "inputs": [
        {
          "internalType": "uint256",
          "name": "_item_id",
          "type": "uint256"
        },
        {
          "internalType": "string",
          "name": "_item_name",
          "type": "string"
        },
        {
          "internalType": "string",
          "name": "_order_location",
          "type": "string"
        },
        {
          "internalType": "uint256",
          "name": "_quantity",
          "type": "uint256"
        },
        {
          "internalType": "address",
          "name": "_reciever",
          "type": "address"
        }
      ],
      "name": "createOrder",
      "outputs": [
        {
          "internalType": "address",
          "name": "",
          "type": "address"
        }
      ],
      "payable": false,
      "stateMutability": "nonpayable",
      "type": "function"
    },
    {
      "constant": true,
      "inputs": [
        {
          "internalType": "address",
          "name": "uuid",
          "type": "address"
        }
      ],
      "name": "getOrderStatus",
      "outputs": [
        {
          "internalType": "string",
          "name": "",
          "type": "string"
        }
      ],
      "payable": false,
      "stateMutability": "view",
      "type": "function"
    },
    {
      "constant": true,
      "inputs": [
        {
          "internalType": "address",
          "name": "uuid",
          "type": "address"
        }
      ],
      "name": "getOrderLocation",
      "outputs": [
        {
          "internalType": "string",
          "name": "",
          "type": "string"
        }
      ],
      "payable": false,
      "stateMutability": "view",
      "type": "function"
    }
  ],
  "bytecode": "0x608060405234801561001057600080fd5b50600080546001600160a01b0319163317905561057c806100326000396000f3fe608060405234801561001057600080fd5b50600436106100415760003560e01c80634f7df2e5146100465780636f9d75cd14610046578063ea3a1f0e146100e1575b600080fd5b61006c6004803603602081101561005c57600080fd5b50356001600160a01b031661023f565b6040805160208082528351818301528351919283929083019185019080838360005b838110156100a657818101518382015260200161008e565b50505050905090810190601f1680156100d35780820380516001836020036101000a031916815260200191505b509250505060405180910390f35b610223600480360360a08110156100f757600080fd5b8135919081019060408101602082013564010000000081111561011957600080fd5b82018360208201111561012b57600080fd5b8035906020019184600183028401116401000000008311171561014d57600080fd5b91908080601f01602080910402602001604051908101604052809392919081815260200183838082843760009201919091525092959493602081019350359150506401000000008111156101a057600080fd5b8201836020820111156101b257600080fd5b803590602001918460018302840111640100000000831117156101d457600080fd5b91908080601f01602080910402602001604051908101604052809392919081815260200183838082843760009201919091525092955050823593505050602001356001600160a01b03166102ec565b604080516001600160a01b039092168252519081900360200190f35b6001600160a01b03811660009081526001602081815260409283902060030180548451600294821615610100026000190190911693909304601f810183900483028401830190945283835260609390918301828280156102e05780601f106102b5576101008083540402835291602001916102e0565b820191906000526020600020905b8154815290600101906020018083116102c357829003601f168201915b50505050509050919050565b6000806002334260405160200180836001600160a01b03166001600160a01b031660601b8152601401828152602001925050506040516020818303038152906040526040518082805190602001908083835b6020831061035d5780518252601f19909201916020918201910161033e565b51815160209384036101000a60001901801990921691161790526040519190930194509192505080830381855afa15801561039c573d6000803e3d6000fd5b5050506040513d60208110156103b157600080fd5b50516001600160a01b03811660009081526001602081815260409092208a815589519394506103e5939101918901906104ac565b50604080518082018252600781526613db88121bdb1960ca1b60208083019182526001600160a01b0385166000908152600190915292909220905161043092600390920191906104ac565b506001600160a01b03811660009081526001602090815260409091208651610460926004909201918801906104ac565b506001600160a01b0380821660009081526001602052604090206002810186905542600582015560060180549185166001600160a01b0319909216919091179055905095945050505050565b828054600181600116156101000203166002900490600052602060002090601f016020900481019282601f106104ed57805160ff191683800117855561051a565b8280016001018555821561051a579182015b8281111561051a5782518255916020019190600101906104ff565b5061052692915061052a565b5090565b61054491905b808211156105265760008155600101610530565b9056fea265627a7a72315820e2d045c52198d3743f6dcef9583e1cb59cc08c5f9a1775a16680cb737c5c19e664736f6c63430005100032",
  "source": "// SPDX-License-Identifier: GPL-3.0\npragma solidity ^0.5.0;\n\ncontract OrderCreator {\n    \n    address Owner;\n    \n    ////////// DEFENTION //////////\n    \n    struct Order {\n        \n        // item data\n        uint item_id;\n        string item_name;\n        uint quantity;\n        \n        // order data\n        string order_status;\n        string order_location;\n        uint order_date;\n        \n        address reciever;\n        \n        bool initialized;\n        \n    }\n    \n    constructor() public {\n        Owner = msg.sender;\n    }\n    \n    ////////// MAPPING //////////\n    \n    mapping(address => Order) private orderMapping;\n    \n    \n    ////////// EVENTS //////////\n    \n    event OrderCreate(uint _item_id, string _item_name, string _order_location, address _reciever);\n    \n    \n    ////////// FUNCTIONS //////////\n    \n    // creates a new order\n    function createOrder(\n            uint _item_id, \n            string memory _item_name, \n            string memory _order_location, \n            uint _quantity, \n            address _reciever\n        ) public returns(address) {\n        address uuid = address(uint160(uint(sha256(abi.encodePacked(msg.sender, block.timestamp)))));\n        \n        orderMapping[uuid].item_id = _item_id;\n        orderMapping[uuid].item_name = _item_name;\n        \n        orderMapping[uuid].order_status = \"On Hold\";\n        orderMapping[uuid].order_location = _order_location;\n        orderMapping[uuid].quantity = _quantity;\n        orderMapping[uuid].order_date = block.timestamp;\n        orderMapping[uuid].reciever = _reciever;\n        \n        return uuid;\n    }\n    \n    // returns the status of the order with the given uuid\n    function getOrderStatus(address uuid) public view returns(string memory) {\n        return orderMapping[uuid].order_status;\n    } \n    \n    // returns the location of the order with the given uuid\n    function getOrderLocation(address uuid) public view returns(string memory) {\n        return orderMapping[uuid].order_status;\n    } \n}  ",
  "sourcePath": "/projects/BC-Group8/ethereum/contracts/OrderCreator.sol",
  "compiler": {
    "name": "solc",
    "version": "0.5.16+commit.9c3226ce.Emscripten.clang"
  },
  "schemaVersion": "3.4.0",
  "updatedAt": "2021-07-07T14:36:56.749Z",
  "devdoc": {
    "methods": {}
  },
  "userdoc": {
    "methods": {
      "createOrder(uint256,string,string,uint256,address)": {
        "notice": "/////// FUNCTIONS //////////"
      }
    }
  }
}