{
  "contractName": "OrderCreator",
  "abi": [
    {
      "inputs": [],
      "payable": false,
      "stateMutability": "nonpayable",
      "type": "constructor"
    },
    {
      "anonymous": false,
      "inputs": [
        {
          "indexed": false,
          "internalType": "uint256",
          "name": "_item_id",
          "type": "uint256"
        },
        {
          "indexed": false,
          "internalType": "string",
          "name": "_item_name",
          "type": "string"
        },
        {
          "indexed": false,
          "internalType": "string",
          "name": "_order_location",
          "type": "string"
        },
        {
          "indexed": false,
          "internalType": "address",
          "name": "_reciever",
          "type": "address"
        }
      ],
      "name": "OrderCreate",
      "type": "event"
    },
    {
      "constant": true,
      "inputs": [
        {
          "internalType": "uint256",
          "name": "",
          "type": "uint256"
        }
      ],
      "name": "orders",
      "outputs": [
        {
          "internalType": "address",
          "name": "",
          "type": "address"
        }
      ],
      "payable": false,
      "stateMutability": "view",
      "type": "function"
    },
    {
      "constant": false,
      "inputs": [
        {
          "internalType": "uint256",
          "name": "_item_id",
          "type": "uint256"
        },
        {
          "internalType": "string",
          "name": "_item_name",
          "type": "string"
        },
        {
          "internalType": "string",
          "name": "_order_location",
          "type": "string"
        },
        {
          "internalType": "uint256",
          "name": "_quantity",
          "type": "uint256"
        },
        {
          "internalType": "address",
          "name": "_reciever",
          "type": "address"
        }
      ],
      "name": "createOrder",
      "outputs": [
        {
          "internalType": "address",
          "name": "",
          "type": "address"
        }
      ],
      "payable": false,
      "stateMutability": "nonpayable",
      "type": "function"
    },
    {
      "constant": true,
      "inputs": [],
      "name": "getOrderIDs",
      "outputs": [
        {
          "internalType": "address[]",
          "name": "",
          "type": "address[]"
        }
      ],
      "payable": false,
      "stateMutability": "view",
      "type": "function"
    },
    {
      "constant": true,
      "inputs": [
        {
          "internalType": "address",
          "name": "order_id",
          "type": "address"
        }
      ],
      "name": "getOrderStatus",
      "outputs": [
        {
          "internalType": "string",
          "name": "",
          "type": "string"
        }
      ],
      "payable": false,
      "stateMutability": "view",
      "type": "function"
    },
    {
      "constant": true,
      "inputs": [
        {
          "internalType": "address",
          "name": "order_id",
          "type": "address"
        }
      ],
      "name": "getOrderLocation",
      "outputs": [
        {
          "internalType": "string",
          "name": "",
          "type": "string"
        }
      ],
      "payable": false,
      "stateMutability": "view",
      "type": "function"
    },
    {
      "constant": true,
      "inputs": [
        {
          "internalType": "address",
          "name": "order_id",
          "type": "address"
        }
      ],
      "name": "getOrderDate",
      "outputs": [
        {
          "internalType": "uint256",
          "name": "",
          "type": "uint256"
        }
      ],
      "payable": false,
      "stateMutability": "view",
      "type": "function"
    },
    {
      "constant": true,
      "inputs": [
        {
          "internalType": "address",
          "name": "order_id",
          "type": "address"
        }
      ],
      "name": "getRecieverAddress",
      "outputs": [
        {
          "internalType": "address",
          "name": "",
          "type": "address"
        }
      ],
      "payable": false,
      "stateMutability": "view",
      "type": "function"
    },
    {
      "constant": true,
      "inputs": [],
      "name": "getNumberOfOrders",
      "outputs": [
        {
          "internalType": "uint256",
          "name": "",
          "type": "uint256"
        }
      ],
      "payable": false,
      "stateMutability": "view",
      "type": "function"
    }
  ],
  "bytecode": "0x608060405234801561001057600080fd5b50600080546001600160a01b0319163317905561083a806100326000396000f3fe608060405234801561001057600080fd5b50600436106100885760003560e01c806377c3107e1161005b57806377c3107e1461018e578063a85c38ef146101e6578063e62e9d371461021f578063ea3a1f0e1461024557610088565b80630e84751d1461008d5780634a4384c4146100a75780634f7df2e5146100cd5780636f9d75cd14610168575b600080fd5b610095610387565b60408051918252519081900360200190f35b610095600480360360208110156100bd57600080fd5b50356001600160a01b031661038e565b6100f3600480360360208110156100e357600080fd5b50356001600160a01b03166103ac565b6040805160208082528351818301528351919283929083019185019080838360005b8381101561012d578181015183820152602001610115565b50505050905090810190601f16801561015a5780820380516001836020036101000a031916815260200191505b509250505060405180910390f35b6100f36004803603602081101561017e57600080fd5b50356001600160a01b0316610458565b6101966104cd565b60408051602080825283518183015283519192839290830191858101910280838360005b838110156101d25781810151838201526020016101ba565b505050509050019250505060405180910390f35b610203600480360360208110156101fc57600080fd5b503561052f565b604080516001600160a01b039092168252519081900360200190f35b6102036004803603602081101561023557600080fd5b50356001600160a01b0316610556565b610203600480360360a081101561025b57600080fd5b8135919081019060408101602082013564010000000081111561027d57600080fd5b82018360208201111561028f57600080fd5b803590602001918460018302840111640100000000831117156102b157600080fd5b91908080601f016020809104026020016040519081016040528093929190818152602001838380828437600092019190915250929594936020810193503591505064010000000081111561030457600080fd5b82018360208201111561031657600080fd5b8035906020019184600183028401116401000000008311171561033857600080fd5b91908080601f01602080910402602001604051908101604052809392919081815260200183838082843760009201919091525092955050823593505050602001356001600160a01b0316610577565b6001545b90565b6001600160a01b031660009081526002602052604090206005015490565b6001600160a01b038116600090815260026020818152604092839020600401805484516001821615610100026000190190911693909304601f8101839004830284018301909452838352606093909183018282801561044c5780601f106104215761010080835404028352916020019161044c565b820191906000526020600020905b81548152906001019060200180831161042f57829003601f168201915b50505050509050919050565b6001600160a01b038116600090815260026020818152604092839020600301805484516001821615610100026000190190911693909304601f8101839004830284018301909452838352606093909183018282801561044c5780601f106104215761010080835404028352916020019161044c565b6060600180548060200260200160405190810160405280929190818152602001828054801561052557602002820191906000526020600020905b81546001600160a01b03168152600190910190602001808311610507575b5050505050905090565b6001818154811061053c57fe5b6000918252602090912001546001600160a01b0316905081565b6001600160a01b039081166000908152600260205260409020600601541690565b6000806002334260405160200180836001600160a01b03166001600160a01b031660601b8152601401828152602001925050506040516020818303038152906040526040518082805190602001908083835b602083106105e85780518252601f1990920191602091820191016105c9565b51815160209384036101000a60001901801990921691161790526040519190930194509192505080830381855afa158015610627573d6000803e3d6000fd5b5050506040513d602081101561063c57600080fd5b50516001600160a01b038116600090815260026020908152604090912089815588519293506106739260019091019189019061076d565b50604080518082018252600781526613db88121bdb1960ca1b60208083019182526001600160a01b038516600090815260029091529290922090516106be926003909201919061076d565b506001600160a01b038116600090815260026020908152604090912086516106ee9260049092019188019061076d565b506001600160a01b038082166000818152600260208190526040822090810188905542600582015560060180549387166001600160a01b031994851617905560018054808201825591527fb10e2d527612073b26eecdfd717e6a320cf44b4afac2b0732d9fcbe2b7fa0cf6018054909216179055905095945050505050565b828054600181600116156101000203166002900490600052602060002090601f016020900481019282601f106107ae57805160ff19168380011785556107db565b828001600101855582156107db579182015b828111156107db5782518255916020019190600101906107c0565b506107e79291506107eb565b5090565b61038b91905b808211156107e757600081556001016107f156fea265627a7a7231582057a33e6486c65996fe78fd58ee52fdf5bdba779b8d4c31e2daa07d6a32f6324564736f6c63430005100032",
  "source": "// SPDX-License-Identifier: GPL-3.0\npragma solidity ^0.5.0;\n\ncontract OrderCreator {\n    \n    address Owner;\n    address[] public orders;\n    \n    ////////// DEFENTION //////////\n    \n    struct Order {\n        \n        // item data\n        uint item_id;\n        string item_name;\n        uint quantity;\n        \n        // order data\n        string order_status;\n        string order_location;\n        uint order_date;\n        \n        address reciever;\n        \n        bool initialized;\n        \n    }\n    \n    constructor() public {\n        Owner = msg.sender;\n    }\n    \n    ////////// MAPPING //////////\n    \n    mapping(address => Order) private orderMapping;\n    \n    \n    ////////// EVENTS //////////\n    \n    event OrderCreate(uint _item_id, string _item_name, string _order_location, address _reciever);\n    \n    \n    ////////// FUNCTIONS //////////\n    \n    // creates a new order\n    function createOrder(\n            uint _item_id, \n            string memory _item_name, \n            string memory _order_location, \n            uint _quantity, \n            address _reciever\n        ) public returns(address) {\n        address uuid = address(uint160(uint(sha256(abi.encodePacked(msg.sender, block.timestamp)))));\n        \n        orderMapping[uuid].item_id = _item_id;\n        orderMapping[uuid].item_name = _item_name;\n        \n        orderMapping[uuid].order_status = \"On Hold\";\n        orderMapping[uuid].order_location = _order_location;\n        orderMapping[uuid].quantity = _quantity;\n        orderMapping[uuid].order_date = block.timestamp;\n        orderMapping[uuid].reciever = _reciever;\n        \n        orders.push(uuid);\n        return uuid;\n    }\n    \n     // returns a array of all order ids \n    function getOrderIDs() public view returns(address[] memory) {\n        return orders;\n    } \n    \n    // returns the status of the order with the given uuid\n    function getOrderStatus(address order_id) public view returns(string memory) {\n        return orderMapping[order_id].order_status;\n    } \n    \n    // returns the location of the order with the given uuid\n    function getOrderLocation(address order_id) public view returns(string memory) {\n        return orderMapping[order_id].order_location;\n    } \n\n    function getOrderDate(address order_id) public view returns(uint) {\n        return orderMapping[order_id].order_date;\n    }\n    \n    function getRecieverAddress(address order_id) public view returns(address) {\n        return orderMapping[order_id].reciever;\n    }\n\n    function getNumberOfOrders() public view returns(uint) {\n        return orders.length;\n    }\n    \n\n\n}  ",
  "sourcePath": "/projects/BC-Group8/ethereum/contracts/OrderCreator.sol",
  "compiler": {
    "name": "solc",
    "version": "0.5.16+commit.9c3226ce.Emscripten.clang"
  },
  "schemaVersion": "3.4.0",
  "updatedAt": "2021-07-07T22:05:31.397Z",
  "devdoc": {
    "methods": {}
  },
  "userdoc": {
    "methods": {
      "createOrder(uint256,string,string,uint256,address)": {
        "notice": "/////// FUNCTIONS //////////"
      }
    }
  }
}