{
  "contractName": "ProductOrigin",
  "abi": [
    {
      "inputs": [],
      "payable": false,
      "stateMutability": "nonpayable",
      "type": "constructor"
    },
    {
      "constant": false,
      "inputs": [
        {
          "internalType": "string",
          "name": "_name",
          "type": "string"
        },
        {
          "internalType": "uint256",
          "name": "_phone",
          "type": "uint256"
        },
        {
          "internalType": "string",
          "name": "_city",
          "type": "string"
        },
        {
          "internalType": "string",
          "name": "_country",
          "type": "string"
        }
      ],
      "name": "addProducer",
      "outputs": [
        {
          "internalType": "bool",
          "name": "",
          "type": "bool"
        }
      ],
      "payable": false,
      "stateMutability": "nonpayable",
      "type": "function"
    },
    {
      "constant": false,
      "inputs": [
        {
          "internalType": "address",
          "name": "_producer",
          "type": "address"
        }
      ],
      "name": "removeProducer",
      "outputs": [
        {
          "internalType": "bool",
          "name": "",
          "type": "bool"
        }
      ],
      "payable": false,
      "stateMutability": "nonpayable",
      "type": "function"
    },
    {
      "constant": false,
      "inputs": [
        {
          "internalType": "address",
          "name": "_product_id",
          "type": "address"
        },
        {
          "internalType": "string",
          "name": "_name",
          "type": "string"
        },
        {
          "internalType": "string",
          "name": "_location",
          "type": "string"
        }
      ],
      "name": "addProduct",
      "outputs": [
        {
          "internalType": "bool",
          "name": "",
          "type": "bool"
        }
      ],
      "payable": false,
      "stateMutability": "nonpayable",
      "type": "function"
    },
    {
      "constant": false,
      "inputs": [
        {
          "internalType": "address",
          "name": "_product_id",
          "type": "address"
        }
      ],
      "name": "removeProduct",
      "outputs": [
        {
          "internalType": "bool",
          "name": "",
          "type": "bool"
        }
      ],
      "payable": false,
      "stateMutability": "nonpayable",
      "type": "function"
    },
    {
      "constant": true,
      "inputs": [
        {
          "internalType": "address",
          "name": "_product_id",
          "type": "address"
        }
      ],
      "name": "findProduct",
      "outputs": [
        {
          "internalType": "address",
          "name": "",
          "type": "address"
        },
        {
          "internalType": "string",
          "name": "",
          "type": "string"
        },
        {
          "internalType": "string",
          "name": "",
          "type": "string"
        }
      ],
      "payable": false,
      "stateMutability": "view",
      "type": "function"
    },
    {
      "constant": true,
      "inputs": [],
      "name": "generateProductId",
      "outputs": [
        {
          "internalType": "address",
          "name": "",
          "type": "address"
        }
      ],
      "payable": false,
      "stateMutability": "view",
      "type": "function"
    }
  ],
  "bytecode": "0x608060405234801561001057600080fd5b50600080546001600160a01b03191633179055610c63806100326000396000f3fe608060405234801561001057600080fd5b50600436106100625760003560e01c80633f185b6c1461006757806365e214ea146100a1578063787b6725146101da578063a5bfd7c914610200578063b7097ecd146103b6578063f5e2c8a3146103da575b600080fd5b61008d6004803603602081101561007d57600080fd5b50356001600160a01b03166104f7565b604080519115158252519081900360200190f35b61008d600480360360608110156100b757600080fd5b6001600160a01b038235169190810190604081016020820135600160201b8111156100e157600080fd5b8201836020820111156100f357600080fd5b803590602001918460018302840111600160201b8311171561011457600080fd5b91908080601f0160208091040260200160405190810160405280939291908181526020018383808284376000920191909152509295949360208101935035915050600160201b81111561016657600080fd5b82018360208201111561017857600080fd5b803590602001918460018302840111600160201b8311171561019957600080fd5b91908080601f016020809104026020016040519081016040528093929190818152602001838380828437600092019190915250929550610608945050505050565b61008d600480360360208110156101f057600080fd5b50356001600160a01b03166106ee565b61008d6004803603608081101561021657600080fd5b810190602081018135600160201b81111561023057600080fd5b82018360208201111561024257600080fd5b803590602001918460018302840111600160201b8311171561026357600080fd5b91908080601f01602080910402602001604051908101604052809392919081815260200183838082843760009201919091525092958435959094909350604081019250602001359050600160201b8111156102bd57600080fd5b8201836020820111156102cf57600080fd5b803590602001918460018302840111600160201b831117156102f057600080fd5b91908080601f0160208091040260200160405190810160405280939291908181526020018383808284376000920191909152509295949360208101935035915050600160201b81111561034257600080fd5b82018360208201111561035457600080fd5b803590602001918460018302840111600160201b8311171561037557600080fd5b91908080601f0160208091040260200160405190810160405280939291908181526020018383808284376000920191909152509295506107ee945050505050565b6103be6108c0565b604080516001600160a01b039092168252519081900360200190f35b610400600480360360208110156103f057600080fd5b50356001600160a01b031661098e565b60405180846001600160a01b03166001600160a01b031681526020018060200180602001838103835285818151815260200191508051906020019080838360005b83811015610459578181015183820152602001610441565b50505050905090810190601f1680156104865780820380516001836020036101000a031916815260200191505b50838103825284518152845160209182019186019080838360005b838110156104b95781810151838201526020016104a1565b50505050905090810190601f1680156104e65780820380516001836020036101000a031916815260200191505b509550505050505060405180910390f35b600080546001600160a01b031633146105415760405162461bcd60e51b8152600401808060200182810382526047815260200180610be86047913960600191505060405180910390fd5b33600090815260016020819052604090912054600291811615610100026000190116046105b5576040805162461bcd60e51b815260206004820152601e60248201527f5468652070726f6475636572206973206e6f74207265676973747265642e0000604482015290519081900360640190fd5b6001600160a01b0382166000908152600160205260408120906105d88282610ae6565b60018201600090556002820160006105f09190610ae6565b6105fe600383016000610ae6565b5060019392505050565b6001600160a01b03808416600090815260026020526040812054909185911615610673576040805162461bcd60e51b8152602060048201526017602482015276283937b23ab1ba1030b63932b0b23c9032bc34b9ba399760491b604482015290519081900360640190fd5b6001600160a01b038516600090815260026020908152604090912080546001600160a01b0319163317815585516106b292600190920191870190610b2d565b506001600160a01b038516600090815260026020818152604090922085516106e293919092019190860190610b2d565b50600195945050505050565b600080546001600160a01b031633146107385760405162461bcd60e51b8152600401808060200182810382526047815260200180610be86047913960600191505060405180910390fd5b6001600160a01b03808316600090815260026020526040902054839116156107a1576040805162461bcd60e51b8152602060048201526017602482015276283937b23ab1ba1030b63932b0b23c9032bc34b9ba399760491b604482015290519081900360640190fd5b6001600160a01b038316600090815260026020526040812080546001600160a01b0319168155906107d56001830182610ae6565b6107e3600283016000610ae6565b506001949350505050565b336000908152600160208190526040822054600291811615610100026000190116041561084c5760405162461bcd60e51b8152600401808060200182810382526022815260200180610bc66022913960400191505060405180910390fd5b336000908152600160209081526040909120865161086c92880190610b2d565b50336000908152600160208181526040909220908101869055845161089992600290920191860190610b2d565b5033600090815260016020908152604090912083516106e292600390920191850190610b2d565b6000806002334260405160200180836001600160a01b03166001600160a01b031660601b8152601401828152602001925050506040516020818303038152906040526040518082805190602001908083835b602083106109315780518252601f199092019160209182019101610912565b51815160209384036101000a60001901801990921691161790526040519190930194509192505080830381855afa158015610970573d6000803e3d6000fd5b5050506040513d602081101561098557600080fd5b50519150505b90565b6001600160a01b038181166000908152600260208181526040808420805460018083018054855161010093821615939093026000190116879004601f8101879004870283018701909552848252969760609788979390911695909493909201929091849190830182828015610a445780601f10610a1957610100808354040283529160200191610a44565b820191906000526020600020905b815481529060010190602001808311610a2757829003601f168201915b5050845460408051602060026001851615610100026000190190941693909304601f810184900484028201840190925281815295975086945092508401905082828015610ad25780601f10610aa757610100808354040283529160200191610ad2565b820191906000526020600020905b815481529060010190602001808311610ab557829003601f168201915b505050505090509250925092509193909250565b50805460018160011615610100020316600290046000825580601f10610b0c5750610b2a565b601f016020900490600052602060002090810190610b2a9190610bab565b50565b828054600181600116156101000203166002900490600052602060002090601f016020900481019282601f10610b6e57805160ff1916838001178555610b9b565b82800160010185558215610b9b579182015b82811115610b9b578251825591602001919060010190610b80565b50610ba7929150610bab565b5090565b61098b91905b80821115610ba75760008155600101610bb156fe5468652070726f647563657220697320616c7265616479207265676973747265642e5065726d697373696f6e2064656e6965642120546869732066756e6374696f6e206973207265737472696374656420746f2074686520636f6e74726163747327206f776e65722ea265627a7a72315820900d15f1c86f69a4b7079b3262a8e9523b1d75e45ff7976d5c7b29c52266de3d64736f6c63430005100032",
  "source": "// SPDX-License-Identifier: GPL-3.0\n\npragma solidity ^0.5.0;\n\n// this contract allows supply chain parties to check the provenance of products\ncontract ProductOrigin {\n    \n    ////////// DEFINITION SECTION //////////\n    address owner;\n    \n    struct Producer {\n        string name;\n        uint phone;\n        string city;\n        string country;\n    }\n    \n    struct Product {\n        address producer;\n        string name;\n        string location;\n    }\n    \n    constructor() public {\n        owner = msg.sender;\n    }\n    \n    ////////// MODIFIERS SECTION //////////\n     modifier onlyOwner() {\n        require(owner == msg.sender, \n        \"Permission denied! This function is restricted to the contracts' owner.\");\n        _;\n    }\n    \n    \n    modifier onlyNewProducer() {\n         require(bytes(producers[msg.sender].name).length == 0,\n         \"The producer is already registred.\");\n        _;\n    }\n    \n     modifier onlyRegistredProducer() {\n         require(bytes(producers[msg.sender].name).length != 0,\n         \"The producer is not registred.\");\n        _;\n    }\n    \n    modifier onlyRegistredProduct(address _product_id) {\n        require(products[_product_id].producer != address(0), \n        \"Product doesn't exist.\");\n        _;\n    }\n    \n    modifier onlyNewProduct(address _product_id) {\n        require(products[_product_id].producer == address(0),\n        \"Product already exists.\");\n        _;\n    }\n    \n    ////////// MAPPING SECTION//////////\n    mapping(address => Producer) producers;\n    mapping(address => Product) products;\n    \n    \n    ////////// FUNCTIONs SECTION //////////\n    // adds a new producer with given details\n    function addProducer(\n        string memory _name, \n        uint _phone, \n        string memory _city, \n        string memory _country)\n        onlyNewProducer()\n        public returns (bool) {\n            producers[msg.sender].name = _name;\n            producers[msg.sender].phone = _phone;\n            producers[msg.sender].city = _city;\n            producers[msg.sender].country = _country;\n            \n        return true;\n    }\n    \n    // removes the producer \n    function removeProducer(address _producer) \n    public onlyOwner() onlyRegistredProducer()\n    returns(bool) {\n        delete producers[_producer];\n        return true;\n    }\n    \n    // adds a product\n    function addProduct(\n        address _product_id,\n        string memory _name, \n        string memory _location) \n        public\n        onlyNewProduct(_product_id)\n        returns(bool)  {\n        products[_product_id].producer = msg.sender;  \n        products[_product_id].name = _name;\n        products[_product_id].location = _location;\n        \n        return true;\n    }\n    \n    // removes a product\n    function removeProduct(address _product_id) \n    public \n    onlyOwner \n    onlyNewProduct(_product_id) \n    returns(bool) {\n        delete products[_product_id];\n        return true;\n    } \n    \n    // function to display details of product\n    function findProduct(address _product_id) \n    public view returns (\n    address,\n    string memory, \n    string memory) {\n        return (products[_product_id].producer,\n        products[_product_id].name, \n        products[_product_id] .location);\n    }\n    \n    // generates a random id\n    function generateProductId() public view returns(address) {\n        address uuid = address(uint160(uint(sha256(abi.encodePacked(msg.sender, block.timestamp)))));\n        return uuid;\n    }\n}",
  "sourcePath": "/projects/BC-Group8/ethereum/contracts/ProductOrigin.sol",
  "compiler": {
    "name": "solc",
    "version": "0.5.16+commit.9c3226ce.Emscripten.clang"
  },
  "schemaVersion": "3.4.0",
  "updatedAt": "2021-07-08T21:18:17.378Z",
  "devdoc": {
    "methods": {}
  },
  "userdoc": {
    "methods": {
      "addProducer(string,uint256,string,string)": {
        "notice": "/////// FUNCTIONs SECTION //////////"
      }
    }
  }
}