{
  "contractName": "Reciever",
  "abi": [
    {
      "constant": true,
      "inputs": [
        {
          "internalType": "address",
          "name": "",
          "type": "address"
        }
      ],
      "name": "mappingRecievedOrders",
      "outputs": [
        {
          "internalType": "bool",
          "name": "",
          "type": "bool"
        }
      ],
      "payable": false,
      "stateMutability": "view",
      "type": "function"
    },
    {
      "constant": true,
      "inputs": [],
      "name": "owner",
      "outputs": [
        {
          "internalType": "address",
          "name": "",
          "type": "address"
        }
      ],
      "payable": false,
      "stateMutability": "view",
      "type": "function"
    },
    {
      "constant": false,
      "inputs": [
        {
          "internalType": "address",
          "name": "shippment_id",
          "type": "address"
        }
      ],
      "name": "addRecievedShippment",
      "outputs": [],
      "payable": false,
      "stateMutability": "nonpayable",
      "type": "function"
    },
    {
      "constant": true,
      "inputs": [
        {
          "internalType": "address",
          "name": "shippment_id",
          "type": "address"
        }
      ],
      "name": "isShippmentRecieved",
      "outputs": [
        {
          "internalType": "bool",
          "name": "",
          "type": "bool"
        }
      ],
      "payable": false,
      "stateMutability": "view",
      "type": "function"
    }
  ],
  "bytecode": "0x6080604052600080546001600160a01b0319163317905534801561002257600080fd5b50610253806100326000396000f3fe608060405234801561001057600080fd5b506004361061004c5760003560e01c80638da5cb5b14610051578063dfedad1714610075578063e398d3cb1461009d578063f77cc27d146100d7575b600080fd5b6100596100fd565b604080516001600160a01b039092168252519081900360200190f35b61009b6004803603602081101561008b57600080fd5b50356001600160a01b031661010c565b005b6100c3600480360360208110156100b357600080fd5b50356001600160a01b03166101b8565b604080519115158252519081900360200190f35b6100c3600480360360208110156100ed57600080fd5b50356001600160a01b03166101d6565b6000546001600160a01b031681565b6000546001600160a01b031633146101555760405162461bcd60e51b81526004018080602001828103825260338152602001806101ec6033913960400191505060405180910390fd5b6001600160a01b03166000818152600260205260408120805460ff191660019081179091558054808201825591527fb10e2d527612073b26eecdfd717e6a320cf44b4afac2b0732d9fcbe2b7fa0cf60180546001600160a01b0319169091179055565b6001600160a01b031660009081526002602052604090205460ff1690565b60026020526000908152604090205460ff168156fe546869732066756e6374696f6e206973207265737472696374656420746f2074686520636f6e74726163742773206f776e6572a265627a7a723158208c262768677bdbb21c369bdae21f616ca7e99bffbf56264be595bfab81295af064736f6c63430005100032",
  "source": "// SPDX-License-Identifier: MIT\npragma solidity ^0.5.0;\n\ncontract Reciever {\n    address public owner = msg.sender;\n    address[] recievedOrders;\n\n    mapping (address => bool) public mappingRecievedOrders;\n\n\n    modifier restricted() {\n        require(\n        msg.sender == owner,\n        \"This function is restricted to the contract's owner\"\n        );\n        _;\n    }\n\n    function addRecievedShippment(address shippment_id) public restricted {\n        mappingRecievedOrders[shippment_id]=true;\n        recievedOrders.push(shippment_id);\n    } \n\n    function isShippmentRecieved(address shippment_id) public view returns(bool) {\n        return mappingRecievedOrders[shippment_id];\n    }\n}",
  "sourcePath": "/projects/BC-Group8/ethereum/contracts/Reciever.sol",
  "compiler": {
    "name": "solc",
    "version": "0.5.16+commit.9c3226ce.Emscripten.clang"
  },
  "schemaVersion": "3.4.0",
  "updatedAt": "2021-07-08T00:33:04.337Z",
  "devdoc": {
    "methods": {}
  },
  "userdoc": {
    "methods": {}
  }
}