{
  "contractName": "Reciever",
  "abi": [
    {
      "inputs": [
        {
          "internalType": "address",
          "name": "_a",
          "type": "address"
        }
      ],
      "payable": false,
      "stateMutability": "nonpayable",
      "type": "constructor"
    },
    {
      "constant": false,
      "inputs": [
        {
          "internalType": "address",
          "name": "_shippment_id",
          "type": "address"
        },
        {
          "internalType": "address payable",
          "name": "_to",
          "type": "address"
        }
      ],
      "name": "pay",
      "outputs": [
        {
          "internalType": "bool",
          "name": "",
          "type": "bool"
        }
      ],
      "payable": false,
      "stateMutability": "nonpayable",
      "type": "function"
    }
  ],
  "bytecode": "0x608060405234801561001057600080fd5b506040516102fa3803806102fa8339818101604052602081101561003357600080fd5b5051600280546001600160a01b039092166001600160a01b0319928316179055600080549091163317905561028d8061006d6000396000f3fe608060405234801561001057600080fd5b506004361061002b5760003560e01c8063bd0af85d14610030575b600080fd5b61005e6004803603604081101561004657600080fd5b506001600160a01b0381358116916020013516610072565b604080519115158252519081900360200190f35b600080546001600160a01b031633146100bc5760405162461bcd60e51b81526004018080602001828103825260478152602001806102126047913960600191505060405180910390fd5b600254604080516317a6c4a360e21b81526001600160a01b03868116600483015291519190921691635e9b128c916024808301926020929190829003018186803b15801561010957600080fd5b505afa15801561011d573d6000803e3d6000fd5b505050506040513d602081101561013357600080fd5b5051156101c7576101bd82600260009054906101000a90046001600160a01b03166001600160a01b03166358ea2c0f6040518163ffffffff1660e01b815260040160206040518083038186803b15801561018c57600080fd5b505afa1580156101a0573d6000803e3d6000fd5b505050506040513d60208110156101b657600080fd5b50516101d1565b50600190506101cb565b5060005b92915050565b6000814711156101c7576040516001600160a01b0384169083156108fc029084906000818181858888f193505050501580156101bd573d6000803e3d6000fdfe5065726d697373696f6e2064656e6965642120546869732066756e6374696f6e206973207265737472696374656420746f2074686520636f6e74726163747327206f776e65722ea265627a7a723158201e6fe02ab6371f09ecca23144a620ff0f4506d5072b4fd364700b65b0972135164736f6c63430005100032",
  "source": "pragma solidity ^0.5.0;\nimport \"./Logistics.sol\";\n\n// this contract allows payment transaction for the recieved shipments \ncontract Reciever{\n    \n    address payable owner;\n    address[] recievedShipments;\n    Logistics lsc;\n    \n    constructor(address _a) public {\n        lsc = Logistics(_a);\n        owner = msg.sender;\n    } \n    \n     \n    modifier onlyOwner() {\n        require(owner == msg.sender, \n        \"Permission denied! This function is restricted to the contracts' owner.\");\n        _;\n    }\n    \n    function pay(\n        address _shippment_id, \n        address payable _to) \n        public onlyOwner returns(bool){\n        if(lsc.isReadyToPay(_shippment_id)) {\n            payValue(_to, lsc.getPaymentValue()); \n            return true;\n        }\n        return false;\n    }\n    \n    function payValue(\n        address payable _to, \n        uint _amount) \n        private returns (bool success){\n           if(address(this).balance > _amount)  {\n               _to.transfer(_amount);\n                return true;\n           }\n        return false;\n    }\n}",
  "sourcePath": "/projects/BC-Group8/ethereum/contracts/Reciever.sol",
  "compiler": {
    "name": "solc",
    "version": "0.5.16+commit.9c3226ce.Emscripten.clang"
  },
  "schemaVersion": "3.4.0",
  "updatedAt": "2021-07-08T21:18:17.399Z",
  "devdoc": {
    "methods": {}
  },
  "userdoc": {
    "methods": {}
  }
}