{
  "contractName": "CrowdCollab",
  "abi": [
    {
      "inputs": [
        {
          "internalType": "address",
          "name": "creator",
          "type": "address"
        },
        {
          "internalType": "uint256",
          "name": "minContribution",
          "type": "uint256"
        },
        {
          "internalType": "string",
          "name": "description",
          "type": "string"
        }
      ],
      "payable": false,
      "stateMutability": "nonpayable",
      "type": "constructor"
    },
    {
      "constant": true,
      "inputs": [],
      "name": "campaignDescription",
      "outputs": [
        {
          "internalType": "string",
          "name": "",
          "type": "string"
        }
      ],
      "payable": false,
      "stateMutability": "view",
      "type": "function"
    },
    {
      "constant": true,
      "inputs": [],
      "name": "manager",
      "outputs": [
        {
          "internalType": "address",
          "name": "",
          "type": "address"
        }
      ],
      "payable": false,
      "stateMutability": "view",
      "type": "function"
    },
    {
      "constant": true,
      "inputs": [],
      "name": "minimumContribution",
      "outputs": [
        {
          "internalType": "uint256",
          "name": "",
          "type": "uint256"
        }
      ],
      "payable": false,
      "stateMutability": "view",
      "type": "function"
    },
    {
      "constant": true,
      "inputs": [],
      "name": "numberSupporters",
      "outputs": [
        {
          "internalType": "uint256",
          "name": "",
          "type": "uint256"
        }
      ],
      "payable": false,
      "stateMutability": "view",
      "type": "function"
    },
    {
      "constant": true,
      "inputs": [
        {
          "internalType": "uint256",
          "name": "",
          "type": "uint256"
        }
      ],
      "name": "requests",
      "outputs": [
        {
          "internalType": "string",
          "name": "description",
          "type": "string"
        },
        {
          "internalType": "uint256",
          "name": "amount",
          "type": "uint256"
        },
        {
          "internalType": "address payable",
          "name": "recipient",
          "type": "address"
        },
        {
          "internalType": "bool",
          "name": "complete",
          "type": "bool"
        },
        {
          "internalType": "uint256",
          "name": "approvalCount",
          "type": "uint256"
        }
      ],
      "payable": false,
      "stateMutability": "view",
      "type": "function"
    },
    {
      "constant": true,
      "inputs": [
        {
          "internalType": "address",
          "name": "",
          "type": "address"
        }
      ],
      "name": "supporters",
      "outputs": [
        {
          "internalType": "bool",
          "name": "",
          "type": "bool"
        }
      ],
      "payable": false,
      "stateMutability": "view",
      "type": "function"
    },
    {
      "constant": false,
      "inputs": [],
      "name": "support",
      "outputs": [],
      "payable": true,
      "stateMutability": "payable",
      "type": "function"
    },
    {
      "constant": false,
      "inputs": [
        {
          "internalType": "string",
          "name": "description",
          "type": "string"
        },
        {
          "internalType": "uint256",
          "name": "amount",
          "type": "uint256"
        },
        {
          "internalType": "address payable",
          "name": "recipient",
          "type": "address"
        }
      ],
      "name": "createRequest",
      "outputs": [],
      "payable": false,
      "stateMutability": "nonpayable",
      "type": "function"
    },
    {
      "constant": false,
      "inputs": [
        {
          "internalType": "uint256",
          "name": "requestId",
          "type": "uint256"
        }
      ],
      "name": "approveRequest",
      "outputs": [],
      "payable": false,
      "stateMutability": "nonpayable",
      "type": "function"
    },
    {
      "constant": false,
      "inputs": [
        {
          "internalType": "uint256",
          "name": "requestId",
          "type": "uint256"
        }
      ],
      "name": "finalizeRequest",
      "outputs": [],
      "payable": false,
      "stateMutability": "nonpayable",
      "type": "function"
    }
  ],
  "bytecode": "0x608060405234801561001057600080fd5b50604051610ac2380380610ac28339818101604052606081101561003357600080fd5b8151602083015160408085018051915193959294830192918464010000000082111561005e57600080fd5b90830190602082018581111561007357600080fd5b825164010000000081118282018810171561008d57600080fd5b82525081516020918201929091019080838360005b838110156100ba5781810151838201526020016100a2565b50505050905090810190601f1680156100e75780820380516001836020036101000a031916815260200191505b506040525050600080546001600160a01b0319166001600160a01b038616179055506001829055805161012190600290602084019061012a565b505050506101c5565b828054600181600116156101000203166002900490600052602060002090601f016020900481019282601f1061016b57805160ff1916838001178555610198565b82800160010185558215610198579182015b8281111561019857825182559160200191906001019061017d565b506101a49291506101a8565b5090565b6101c291905b808211156101a457600081556001016101ae565b90565b6108ee806101d46000396000f3fe6080604052600436106100915760003560e01c806381d12c581161005957806381d12c58146101cc5780638a9cfd55146102a0578063937e09b114610361578063c121b1d214610388578063d7d1bbdb1461039d57610091565b80630344100614610096578063110842cb146100c2578063119f87471461014c578063481c6a7514610154578063647c75e214610185575b600080fd5b3480156100a257600080fd5b506100c0600480360360208110156100b957600080fd5b50356103c7565b005b3480156100ce57600080fd5b506100d761048d565b6040805160208082528351818301528351919283929083019185019080838360005b838110156101115781810151838201526020016100f9565b50505050905090810190601f16801561013e5780820380516001836020036101000a031916815260200191505b509250505060405180910390f35b6100c0610518565b34801561016057600080fd5b5061016961054e565b604080516001600160a01b039092168252519081900360200190f35b34801561019157600080fd5b506101b8600480360360208110156101a857600080fd5b50356001600160a01b031661055d565b604080519115158252519081900360200190f35b3480156101d857600080fd5b506101f6600480360360208110156101ef57600080fd5b5035610572565b6040518080602001868152602001856001600160a01b03166001600160a01b0316815260200184151515158152602001838152602001828103825287818151815260200191508051906020019080838360005b83811015610261578181015183820152602001610249565b50505050905090810190601f16801561028e5780820380516001836020036101000a031916815260200191505b50965050505050505060405180910390f35b3480156102ac57600080fd5b506100c0600480360360608110156102c357600080fd5b8101906020810181356401000000008111156102de57600080fd5b8201836020820111156102f057600080fd5b8035906020019184600183028401116401000000008311171561031257600080fd5b91908080601f01602080910402602001604051908101604052809392919081815260200183838082843760009201919091525092955050823593505050602001356001600160a01b031661064b565b34801561036d57600080fd5b5061037661074f565b60408051918252519081900360200190f35b34801561039457600080fd5b50610376610755565b3480156103a957600080fd5b506100c0600480360360208110156103c057600080fd5b503561075b565b6000546001600160a01b031633146103de57600080fd5b6000600582815481106103ed57fe5b906000526020600020906005020190508060020160149054906101000a900460ff161561041957600080fd5b60026004548161042557fe5b0481600401541161043557600080fd5b600281015460018201546040516001600160a01b039092169181156108fc0291906000818181858888f19350505050158015610475573d6000803e3d6000fd5b50600201805460ff60a01b1916600160a01b17905550565b6002805460408051602060018416156101000260001901909316849004601f810184900484028201840190925281815292918301828280156105105780601f106104e557610100808354040283529160200191610510565b820191906000526020600020905b8154815290600101906020018083116104f357829003601f168201915b505050505081565b600154341161052657600080fd5b336000908152600360205260409020805460ff19166001908117909155600480549091019055565b6000546001600160a01b031681565b60036020526000908152604090205460ff1681565b6005818154811061057f57fe5b60009182526020918290206005919091020180546040805160026001841615610100026000190190931692909204601f8101859004850283018501909152808252919350918391908301828280156106185780601f106105ed57610100808354040283529160200191610618565b820191906000526020600020905b8154815290600101906020018083116105fb57829003601f168201915b5050505060018301546002840154600490940154929390926001600160a01b0382169250600160a01b90910460ff169085565b6000546001600160a01b0316331461066257600080fd5b61066a6107e4565b506040805160a08101825284815260208082018590526001600160a01b038416928201929092526000606082018190526080820181905260058054600181018083559282905283518051949593948694929093027f036b6384b5eca791c62761152d0c79bb0604c104a5fb6f4eb0703f3154bb3db001926106ee928492019061081e565b5060208201516001820155604082015160028201805460608501511515600160a01b0260ff60a01b196001600160a01b039094166001600160a01b031990921691909117929092169190911790556080909101516004909101555050505050565b60015481565b60045481565b3360009081526003602052604090205460ff1661077757600080fd5b60006005828154811061078657fe5b600091825260208083203384526003600590930201918201905260409091205490915060ff16156107b657600080fd5b3360009081526003820160205260409020805460ff1916600190811790915560049091018054909101905550565b6040518060a00160405280606081526020016000815260200160006001600160a01b03168152602001600015158152602001600081525090565b828054600181600116156101000203166002900490600052602060002090601f016020900481019282601f1061085f57805160ff191683800117855561088c565b8280016001018555821561088c579182015b8281111561088c578251825591602001919060010190610871565b5061089892915061089c565b5090565b6108b691905b8082111561089857600081556001016108a2565b9056fea265627a7a7231582030deffe56dbe7e0824c888f7c5ebf6ef0bd1adff5a9048341cf759af7186f55364736f6c63430005100032",
  "source": "pragma solidity ^0.5.0;\n\n/**\n * Represents a Kickstarter campaign\n */\ncontract CrowdCollab {\n\n    //address of manager who manages campaign\n    address public manager;\n\n    //min contribution value in ETH\n    uint public minimumContribution;\n\n    //description about your campaign\n    string public campaignDescription;\n\n    //a mapping list of supporter address, to check if address is supporter or not\n    //only addresses valid in the ethereum protocol. if a new supporter is added, set to true\n    mapping(address => bool) public supporters;\n\n    //current number of supporter in campaign,\n    //when any one contribute money for project, he/she will become supporter\n    //we add +1 to numberSupporters with every new supporter\n    uint public numberSupporters;\n\n    /**\n     * Expense detail information for a Request\n     */\n    struct Request {\n        string description;    //description or purpose of request\n        uint amount;    //requested amount to be spent\n        address payable recipient;\n        bool complete;\n        mapping(address => bool) approvals;\n        uint approvalCount;\n    }\n\n    //list of every Request created in campaign by manager\n    Request[] public requests;\n\n    //Restrict functions to be triggered only by manager\n    modifier managerOnly() {\n        require(msg.sender == manager);\n        _;\n    }\n\n    //Restrict functions to be triggered only by supporters\n    modifier supporterOnly() {\n        require(supporters[msg.sender]);\n        _;\n    }\n\n    //init state variables\n    constructor(address creator, uint minContribution, string memory description) public {\n        manager = creator;\n        minimumContribution = minContribution;\n        campaignDescription = description;\n    }\n\n    /**\n     * Payable of campaign, where supporter send ETH to contribute for campaign\n     * this allows users to support the campaign if they send ETH higher than minimumContribution\n     */\n    function support() public payable {\n        require(msg.value > minimumContribution);\n        supporters[msg.sender] = true;\n        numberSupporters++;\n    }\n\n    /**\n     * \n     */\n    function createRequest(string memory description, uint amount, address payable recipient) public managerOnly {\n        Request memory newRequest = Request({\n            description: description,\n            amount: amount,\n            recipient: recipient,\n            complete: false,\n            approvalCount: 0\n        });\n        requests.push(newRequest);\n    }\n\n    /**\n     *\n     */\n    function approveRequest(uint requestId) public supporterOnly {\n        Request storage request = requests[requestId];\n        require(!request.approvals[msg.sender]);\n        request.approvals[msg.sender] = true;\n        request.approvalCount++;\n    }\n\n    function finalizeRequest(uint requestId) public managerOnly {\n        Request storage request = requests[requestId];\n        require(!request.complete);\n        require(request.approvalCount > (numberSupporters/2) );\n        request.recipient.transfer(request.amount);\n        request.complete = true;\n    }\n}",
  "sourcePath": "/projects/BC-Group8/contracts/CrowdCollab.sol",
  "compiler": {
    "name": "solc",
    "version": "0.5.16+commit.9c3226ce.Emscripten.clang"
  },
  "schemaVersion": "3.4.0",
  "updatedAt": "2021-06-21T12:48:47.738Z",
  "devdoc": {
    "methods": {}
  },
  "userdoc": {
    "methods": {
      "createRequest(string,uint256,address)": {
        "notice": "     "
      },
      "support()": {
        "notice": "Payable of campaign, where supporter send ETH to contribute for campaign this allows users to support the campaign if they send ETH higher than minimumContribution"
      }
    },
    "notice": "Represents a Kickstarter campaign"
  }
}